{
  "_format": "hh-sol-artifact-1",
  "contractName": "Exchange",
  "sourceName": "contracts/Exchange.sol",
  "abi": [
    {
      "inputs": [],
      "stateMutability": "nonpayable",
      "type": "constructor"
    },
    {
      "anonymous": false,
      "inputs": [
        {
          "indexed": false,
          "internalType": "uint256",
          "name": "moonCoinAmount",
          "type": "uint256"
        },
        {
          "indexed": false,
          "internalType": "uint256",
          "name": "ethAmount",
          "type": "uint256"
        },
        {
          "indexed": false,
          "internalType": "address",
          "name": "buyer",
          "type": "address"
        }
      ],
      "name": "Swap",
      "type": "event"
    },
    {
      "inputs": [],
      "name": "moonCoin",
      "outputs": [
        {
          "internalType": "contract MoonCoin",
          "name": "",
          "type": "address"
        }
      ],
      "stateMutability": "view",
      "type": "function"
    },
    {
      "inputs": [],
      "name": "owner",
      "outputs": [
        {
          "internalType": "address",
          "name": "",
          "type": "address"
        }
      ],
      "stateMutability": "view",
      "type": "function"
    },
    {
      "inputs": [
        {
          "internalType": "uint256",
          "name": "_moonCoinAmount",
          "type": "uint256"
        }
      ],
      "name": "swapETHForMoon",
      "outputs": [],
      "stateMutability": "payable",
      "type": "function"
    },
    {
      "inputs": [],
      "name": "withdraw",
      "outputs": [],
      "stateMutability": "nonpayable",
      "type": "function"
    },
    {
      "stateMutability": "payable",
      "type": "receive"
    }
  ],
  "bytecode": "0x608060405234801561001057600080fd5b50336000806101000a81548173ffffffffffffffffffffffffffffffffffffffff021916908373ffffffffffffffffffffffffffffffffffffffff1602179055503060405161005e906100ca565b61006891906100e6565b604051809103906000f080158015610084573d6000803e3d6000fd5b50600160006101000a81548173ffffffffffffffffffffffffffffffffffffffff021916908373ffffffffffffffffffffffffffffffffffffffff160217905550610133565b6118ad80610bfc83390190565b6100e081610101565b82525050565b60006020820190506100fb60008301846100d7565b92915050565b600061010c82610113565b9050919050565b600073ffffffffffffffffffffffffffffffffffffffff82169050919050565b610aba806101426000396000f3fe6080604052600436106100435760003560e01c80633ccfd60b1461004f578063556565e31461006657806374d62d02146100915780638da5cb5b146100ad5761004a565b3661004a57005b600080fd5b34801561005b57600080fd5b506100646100d8565b005b34801561007257600080fd5b5061007b610236565b60405161008891906107f3565b60405180910390f35b6100ab60048036038101906100a691906105c1565b61025c565b005b3480156100b957600080fd5b506100c2610535565b6040516100cf91906107af565b60405180910390f35b60008054906101000a900473ffffffffffffffffffffffffffffffffffffffff1673ffffffffffffffffffffffffffffffffffffffff163373ffffffffffffffffffffffffffffffffffffffff1614610166576040517f08c379a000000000000000000000000000000000000000000000000000000000815260040161015d9061082e565b60405180910390fd5b60008060009054906101000a900473ffffffffffffffffffffffffffffffffffffffff1673ffffffffffffffffffffffffffffffffffffffff16476040516101ad9061079a565b60006040518083038185875af1925050503d80600081146101ea576040519150601f19603f3d011682016040523d82523d6000602084013e6101ef565b606091505b5050905080610233576040517f08c379a000000000000000000000000000000000000000000000000000000000815260040161022a9061086e565b60405180910390fd5b50565b600160009054906101000a900473ffffffffffffffffffffffffffffffffffffffff1681565b600a670de0b6b3a7640000826102729190610932565b61027c9190610901565b3410156102be576040517f08c379a00000000000000000000000000000000000000000000000000000000081526004016102b59061084e565b60405180910390fd5b670de0b6b3a7640000816102d29190610932565b600160009054906101000a900473ffffffffffffffffffffffffffffffffffffffff1673ffffffffffffffffffffffffffffffffffffffff166370a08231306040518263ffffffff1660e01b815260040161032d91906107af565b60206040518083038186803b15801561034557600080fd5b505afa158015610359573d6000803e3d6000fd5b505050506040513d601f19601f8201168201806040525081019061037d91906105ea565b10156103be576040517f08c379a00000000000000000000000000000000000000000000000000000000081526004016103b59061088e565b60405180910390fd5b6000600160009054906101000a900473ffffffffffffffffffffffffffffffffffffffff1673ffffffffffffffffffffffffffffffffffffffff1663a9059cbb33670de0b6b3a7640000856104139190610932565b6040518363ffffffff1660e01b81526004016104309291906107ca565b602060405180830381600087803b15801561044a57600080fd5b505af115801561045e573d6000803e3d6000fd5b505050506040513d601f19601f820116820180604052508101906104829190610598565b9050806104c4576040517f08c379a00000000000000000000000000000000000000000000000000000000081526004016104bb9061080e565b60405180910390fd5b7f7af2bc3f8ec800c569b6555feaf16589d96a9d04a49d1645fd456d75fa0b372b670de0b6b3a7640000836104f99190610932565b600a670de0b6b3a76400008561050f9190610932565b6105199190610901565b33604051610529939291906108ae565b60405180910390a15050565b60008054906101000a900473ffffffffffffffffffffffffffffffffffffffff1681565b60008151905061056881610a56565b92915050565b60008135905061057d81610a6d565b92915050565b60008151905061059281610a6d565b92915050565b6000602082840312156105aa57600080fd5b60006105b884828501610559565b91505092915050565b6000602082840312156105d357600080fd5b60006105e18482850161056e565b91505092915050565b6000602082840312156105fc57600080fd5b600061060a84828501610583565b91505092915050565b61061c8161098c565b82525050565b61062b816109d4565b82525050565b600061063e6019836108f0565b91507f4d6f6f6e20436f696e207472616e73666572206661696c6564000000000000006000830152602082019050919050565b600061067e600e836108f0565b91507f4d757374206265206f776e6572210000000000000000000000000000000000006000830152602082019050919050565b60006106be6013836108f0565b91507f4e6f7420656e6f756768204554482073656e74000000000000000000000000006000830152602082019050919050565b60006106fe6000836108e5565b9150600082019050919050565b60006107186013836108f0565b91507f455448207472616e73666572206661696c6564000000000000000000000000006000830152602082019050919050565b6000610758601c836108f0565b91507f4e6f206d6f7265206d6f6f6e20636f696e7320617661696c61626c65000000006000830152602082019050919050565b610794816109ca565b82525050565b60006107a5826106f1565b9150819050919050565b60006020820190506107c46000830184610613565b92915050565b60006040820190506107df6000830185610613565b6107ec602083018461078b565b9392505050565b60006020820190506108086000830184610622565b92915050565b6000602082019050818103600083015261082781610631565b9050919050565b6000602082019050818103600083015261084781610671565b9050919050565b60006020820190508181036000830152610867816106b1565b9050919050565b600060208201905081810360008301526108878161070b565b9050919050565b600060208201905081810360008301526108a78161074b565b9050919050565b60006060820190506108c3600083018661078b565b6108d0602083018561078b565b6108dd6040830184610613565b949350505050565b600081905092915050565b600082825260208201905092915050565b600061090c826109ca565b9150610917836109ca565b92508261092757610926610a27565b5b828204905092915050565b600061093d826109ca565b9150610948836109ca565b9250817fffffffffffffffffffffffffffffffffffffffffffffffffffffffffffffffff0483118215151615610981576109806109f8565b5b828202905092915050565b6000610997826109aa565b9050919050565b60008115159050919050565b600073ffffffffffffffffffffffffffffffffffffffff82169050919050565b6000819050919050565b60006109df826109e6565b9050919050565b60006109f1826109aa565b9050919050565b7f4e487b7100000000000000000000000000000000000000000000000000000000600052601160045260246000fd5b7f4e487b7100000000000000000000000000000000000000000000000000000000600052601260045260246000fd5b610a5f8161099e565b8114610a6a57600080fd5b50565b610a76816109ca565b8114610a8157600080fd5b5056fea264697066735822122041430da5d9329741f0aa58302b9bf7acc27a36e5a76a0cfb2264667c92e7377d64736f6c6343000800003360806040523480156200001157600080fd5b50604051620018ad380380620018ad833981810160405281019062000037919062000344565b6040518060400160405280600881526020017f4d6f6f6e436f696e0000000000000000000000000000000000000000000000008152506040518060400160405280600481526020017f6d6f6f6e000000000000000000000000000000000000000000000000000000008152508160039080519060200190620000bb9291906200027d565b508060049080519060200190620000d49291906200027d565b505050620000f3816969e10de76676d0800000620000fa60201b60201c565b506200055c565b600073ffffffffffffffffffffffffffffffffffffffff168273ffffffffffffffffffffffffffffffffffffffff1614156200016d576040517f08c379a00000000000000000000000000000000000000000000000000000000081526004016200016490620003c3565b60405180910390fd5b62000181600083836200027360201b60201c565b806002600082825462000195919062000413565b92505081905550806000808473ffffffffffffffffffffffffffffffffffffffff1673ffffffffffffffffffffffffffffffffffffffff1681526020019081526020016000206000828254620001ec919062000413565b925050819055508173ffffffffffffffffffffffffffffffffffffffff16600073ffffffffffffffffffffffffffffffffffffffff167fddf252ad1be2c89b69c2b068fc378daa952ba7f163c4a11628f55a4df523b3ef83604051620002539190620003e5565b60405180910390a36200026f600083836200027860201b60201c565b5050565b505050565b505050565b8280546200028b90620004ae565b90600052602060002090601f016020900481019282620002af5760008555620002fb565b82601f10620002ca57805160ff1916838001178555620002fb565b82800160010185558215620002fb579182015b82811115620002fa578251825591602001919060010190620002dd565b5b5090506200030a91906200030e565b5090565b5b80821115620003295760008160009055506001016200030f565b5090565b6000815190506200033e8162000542565b92915050565b6000602082840312156200035757600080fd5b600062000367848285016200032d565b91505092915050565b60006200037f601f8362000402565b91507f45524332303a206d696e7420746f20746865207a65726f2061646472657373006000830152602082019050919050565b620003bd81620004a4565b82525050565b60006020820190508181036000830152620003de8162000370565b9050919050565b6000602082019050620003fc6000830184620003b2565b92915050565b600082825260208201905092915050565b60006200042082620004a4565b91506200042d83620004a4565b9250827fffffffffffffffffffffffffffffffffffffffffffffffffffffffffffffffff03821115620004655762000464620004e4565b5b828201905092915050565b60006200047d8262000484565b9050919050565b600073ffffffffffffffffffffffffffffffffffffffff82169050919050565b6000819050919050565b60006002820490506001821680620004c757607f821691505b60208210811415620004de57620004dd62000513565b5b50919050565b7f4e487b7100000000000000000000000000000000000000000000000000000000600052601160045260246000fd5b7f4e487b7100000000000000000000000000000000000000000000000000000000600052602260045260246000fd5b6200054d8162000470565b81146200055957600080fd5b50565b611341806200056c6000396000f3fe608060405234801561001057600080fd5b50600436106100a95760003560e01c80633950935111610071578063395093511461016857806370a082311461019857806395d89b41146101c8578063a457c2d7146101e6578063a9059cbb14610216578063dd62ed3e14610246576100a9565b806306fdde03146100ae578063095ea7b3146100cc57806318160ddd146100fc57806323b872dd1461011a578063313ce5671461014a575b600080fd5b6100b6610276565b6040516100c3919061100a565b60405180910390f35b6100e660048036038101906100e19190610c83565b610308565b6040516100f39190610fef565b60405180910390f35b610104610326565b604051610111919061110c565b60405180910390f35b610134600480360381019061012f9190610c34565b610330565b6040516101419190610fef565b60405180910390f35b610152610428565b60405161015f9190611127565b60405180910390f35b610182600480360381019061017d9190610c83565b610431565b60405161018f9190610fef565b60405180910390f35b6101b260048036038101906101ad9190610bcf565b6104dd565b6040516101bf919061110c565b60405180910390f35b6101d0610525565b6040516101dd919061100a565b60405180910390f35b61020060048036038101906101fb9190610c83565b6105b7565b60405161020d9190610fef565b60405180910390f35b610230600480360381019061022b9190610c83565b6106a2565b60405161023d9190610fef565b60405180910390f35b610260600480360381019061025b9190610bf8565b6106c0565b60405161026d919061110c565b60405180910390f35b6060600380546102859061123c565b80601f01602080910402602001604051908101604052809291908181526020018280546102b19061123c565b80156102fe5780601f106102d3576101008083540402835291602001916102fe565b820191906000526020600020905b8154815290600101906020018083116102e157829003601f168201915b5050505050905090565b600061031c610315610747565b848461074f565b6001905092915050565b6000600254905090565b600061033d84848461091a565b6000600160008673ffffffffffffffffffffffffffffffffffffffff1673ffffffffffffffffffffffffffffffffffffffff1681526020019081526020016000206000610388610747565b73ffffffffffffffffffffffffffffffffffffffff1673ffffffffffffffffffffffffffffffffffffffff16815260200190815260200160002054905082811015610408576040517f08c379a00000000000000000000000000000000000000000000000000000000081526004016103ff9061108c565b60405180910390fd5b61041c85610414610747565b85840361074f565b60019150509392505050565b60006012905090565b60006104d361043e610747565b84846001600061044c610747565b73ffffffffffffffffffffffffffffffffffffffff1673ffffffffffffffffffffffffffffffffffffffff16815260200190815260200160002060008873ffffffffffffffffffffffffffffffffffffffff1673ffffffffffffffffffffffffffffffffffffffff168152602001908152602001600020546104ce919061115e565b61074f565b6001905092915050565b60008060008373ffffffffffffffffffffffffffffffffffffffff1673ffffffffffffffffffffffffffffffffffffffff168152602001908152602001600020549050919050565b6060600480546105349061123c565b80601f01602080910402602001604051908101604052809291908181526020018280546105609061123c565b80156105ad5780601f10610582576101008083540402835291602001916105ad565b820191906000526020600020905b81548152906001019060200180831161059057829003601f168201915b5050505050905090565b600080600160006105c6610747565b73ffffffffffffffffffffffffffffffffffffffff1673ffffffffffffffffffffffffffffffffffffffff16815260200190815260200160002060008573ffffffffffffffffffffffffffffffffffffffff1673ffffffffffffffffffffffffffffffffffffffff16815260200190815260200160002054905082811015610683576040517f08c379a000000000000000000000000000000000000000000000000000000000815260040161067a906110ec565b60405180910390fd5b61069761068e610747565b8585840361074f565b600191505092915050565b60006106b66106af610747565b848461091a565b6001905092915050565b6000600160008473ffffffffffffffffffffffffffffffffffffffff1673ffffffffffffffffffffffffffffffffffffffff16815260200190815260200160002060008373ffffffffffffffffffffffffffffffffffffffff1673ffffffffffffffffffffffffffffffffffffffff16815260200190815260200160002054905092915050565b600033905090565b600073ffffffffffffffffffffffffffffffffffffffff168373ffffffffffffffffffffffffffffffffffffffff1614156107bf576040517f08c379a00000000000000000000000000000000000000000000000000000000081526004016107b6906110cc565b60405180910390fd5b600073ffffffffffffffffffffffffffffffffffffffff168273ffffffffffffffffffffffffffffffffffffffff16141561082f576040517f08c379a00000000000000000000000000000000000000000000000000000000081526004016108269061104c565b60405180910390fd5b80600160008573ffffffffffffffffffffffffffffffffffffffff1673ffffffffffffffffffffffffffffffffffffffff16815260200190815260200160002060008473ffffffffffffffffffffffffffffffffffffffff1673ffffffffffffffffffffffffffffffffffffffff168152602001908152602001600020819055508173ffffffffffffffffffffffffffffffffffffffff168373ffffffffffffffffffffffffffffffffffffffff167f8c5be1e5ebec7d5bd14f71427d1e84f3dd0314c0f7b2291e5b200ac8c7c3b9258360405161090d919061110c565b60405180910390a3505050565b600073ffffffffffffffffffffffffffffffffffffffff168373ffffffffffffffffffffffffffffffffffffffff16141561098a576040517f08c379a0000000000000000000000000000000000000000000000000000000008152600401610981906110ac565b60405180910390fd5b600073ffffffffffffffffffffffffffffffffffffffff168273ffffffffffffffffffffffffffffffffffffffff1614156109fa576040517f08c379a00000000000000000000000000000000000000000000000000000000081526004016109f19061102c565b60405180910390fd5b610a05838383610b9b565b60008060008573ffffffffffffffffffffffffffffffffffffffff1673ffffffffffffffffffffffffffffffffffffffff16815260200190815260200160002054905081811015610a8b576040517f08c379a0000000000000000000000000000000000000000000000000000000008152600401610a829061106c565b60405180910390fd5b8181036000808673ffffffffffffffffffffffffffffffffffffffff1673ffffffffffffffffffffffffffffffffffffffff16815260200190815260200160002081905550816000808573ffffffffffffffffffffffffffffffffffffffff1673ffffffffffffffffffffffffffffffffffffffff1681526020019081526020016000206000828254610b1e919061115e565b925050819055508273ffffffffffffffffffffffffffffffffffffffff168473ffffffffffffffffffffffffffffffffffffffff167fddf252ad1be2c89b69c2b068fc378daa952ba7f163c4a11628f55a4df523b3ef84604051610b82919061110c565b60405180910390a3610b95848484610ba0565b50505050565b505050565b505050565b600081359050610bb4816112dd565b92915050565b600081359050610bc9816112f4565b92915050565b600060208284031215610be157600080fd5b6000610bef84828501610ba5565b91505092915050565b60008060408385031215610c0b57600080fd5b6000610c1985828601610ba5565b9250506020610c2a85828601610ba5565b9150509250929050565b600080600060608486031215610c4957600080fd5b6000610c5786828701610ba5565b9350506020610c6886828701610ba5565b9250506040610c7986828701610bba565b9150509250925092565b60008060408385031215610c9657600080fd5b6000610ca485828601610ba5565b9250506020610cb585828601610bba565b9150509250929050565b610cc8816111c6565b82525050565b6000610cd982611142565b610ce3818561114d565b9350610cf3818560208601611209565b610cfc816112cc565b840191505092915050565b6000610d1460238361114d565b91507f45524332303a207472616e7366657220746f20746865207a65726f206164647260008301527f65737300000000000000000000000000000000000000000000000000000000006020830152604082019050919050565b6000610d7a60228361114d565b91507f45524332303a20617070726f766520746f20746865207a65726f20616464726560008301527f73730000000000000000000000000000000000000000000000000000000000006020830152604082019050919050565b6000610de060268361114d565b91507f45524332303a207472616e7366657220616d6f756e742065786365656473206260008301527f616c616e636500000000000000000000000000000000000000000000000000006020830152604082019050919050565b6000610e4660288361114d565b91507f45524332303a207472616e7366657220616d6f756e742065786365656473206160008301527f6c6c6f77616e63650000000000000000000000000000000000000000000000006020830152604082019050919050565b6000610eac60258361114d565b91507f45524332303a207472616e736665722066726f6d20746865207a65726f20616460008301527f64726573730000000000000000000000000000000000000000000000000000006020830152604082019050919050565b6000610f1260248361114d565b91507f45524332303a20617070726f76652066726f6d20746865207a65726f2061646460008301527f72657373000000000000000000000000000000000000000000000000000000006020830152604082019050919050565b6000610f7860258361114d565b91507f45524332303a2064656372656173656420616c6c6f77616e63652062656c6f7760008301527f207a65726f0000000000000000000000000000000000000000000000000000006020830152604082019050919050565b610fda816111f2565b82525050565b610fe9816111fc565b82525050565b60006020820190506110046000830184610cbf565b92915050565b600060208201905081810360008301526110248184610cce565b905092915050565b6000602082019050818103600083015261104581610d07565b9050919050565b6000602082019050818103600083015261106581610d6d565b9050919050565b6000602082019050818103600083015261108581610dd3565b9050919050565b600060208201905081810360008301526110a581610e39565b9050919050565b600060208201905081810360008301526110c581610e9f565b9050919050565b600060208201905081810360008301526110e581610f05565b9050919050565b6000602082019050818103600083015261110581610f6b565b9050919050565b60006020820190506111216000830184610fd1565b92915050565b600060208201905061113c6000830184610fe0565b92915050565b600081519050919050565b600082825260208201905092915050565b6000611169826111f2565b9150611174836111f2565b9250827fffffffffffffffffffffffffffffffffffffffffffffffffffffffffffffffff038211156111a9576111a861126e565b5b828201905092915050565b60006111bf826111d2565b9050919050565b60008115159050919050565b600073ffffffffffffffffffffffffffffffffffffffff82169050919050565b6000819050919050565b600060ff82169050919050565b60005b8381101561122757808201518184015260208101905061120c565b83811115611236576000848401525b50505050565b6000600282049050600182168061125457607f821691505b602082108114156112685761126761129d565b5b50919050565b7f4e487b7100000000000000000000000000000000000000000000000000000000600052601160045260246000fd5b7f4e487b7100000000000000000000000000000000000000000000000000000000600052602260045260246000fd5b6000601f19601f8301169050919050565b6112e6816111b4565b81146112f157600080fd5b50565b6112fd816111f2565b811461130857600080fd5b5056fea2646970667358221220d7677b7ef38c7635e4c4f68970dffff1708ef804d804d1fda36b15d05945a06e64736f6c63430008000033",
  "linkReferences": {},
  "deployedLinkReferences": {}
}